{
  "contractName": "CarbonCreditTrading",
  "abi": [
    {
      "inputs": [],
      "stateMutability": "nonpayable",
      "type": "constructor"
    },
    {
      "anonymous": false,
      "inputs": [
        {
          "indexed": true,
          "internalType": "address",
          "name": "_from",
          "type": "address"
        },
        {
          "indexed": true,
          "internalType": "address",
          "name": "_to",
          "type": "address"
        },
        {
          "indexed": false,
          "internalType": "uint256",
          "name": "_value",
          "type": "uint256"
        }
      ],
      "name": "Transfer",
      "type": "event"
    },
    {
      "inputs": [
        {
          "internalType": "address",
          "name": "",
          "type": "address"
        }
      ],
      "name": "balances",
      "outputs": [
        {
          "internalType": "uint256",
          "name": "",
          "type": "uint256"
        }
      ],
      "stateMutability": "view",
      "type": "function",
      "constant": true
    },
    {
      "inputs": [],
      "name": "owner",
      "outputs": [
        {
          "internalType": "address",
          "name": "",
          "type": "address"
        }
      ],
      "stateMutability": "view",
      "type": "function",
      "constant": true
    },
    {
      "inputs": [
        {
          "internalType": "uint256",
          "name": "_amount",
          "type": "uint256"
        }
      ],
      "name": "buyCarbonCredits",
      "outputs": [],
      "stateMutability": "payable",
      "type": "function",
      "payable": true
    },
    {
      "inputs": [
        {
          "internalType": "uint256",
          "name": "_amount",
          "type": "uint256"
        }
      ],
      "name": "sellCarbonCredits",
      "outputs": [],
      "stateMutability": "nonpayable",
      "type": "function"
    }
  ],
  "bytecode": "0x608060405234801561001057600080fd5b50336000806101000a81548173ffffffffffffffffffffffffffffffffffffffff021916908373ffffffffffffffffffffffffffffffffffffffff1602179055506106b1806100606000396000f3fe60806040526004361061003f5760003560e01c806327e235e3146100445780638b29ad40146100815780638da5cb5b146100aa578063c5666a05146100d5575b600080fd5b34801561005057600080fd5b5061006b60048036038101906100669190610417565b6100f1565b604051610078919061045d565b60405180910390f35b34801561008d57600080fd5b506100a860048036038101906100a391906104a4565b610109565b005b3480156100b657600080fd5b506100bf610290565b6040516100cc91906104e0565b60405180910390f35b6100ef60048036038101906100ea91906104a4565b6102b4565b005b60016020528060005260406000206000915090505481565b80600160003373ffffffffffffffffffffffffffffffffffffffff1673ffffffffffffffffffffffffffffffffffffffff16815260200190815260200160002054101561018b576040517f08c379a000000000000000000000000000000000000000000000000000000000815260040161018290610558565b60405180910390fd5b3373ffffffffffffffffffffffffffffffffffffffff166108fc829081150290604051600060405180830381858888f193505050501580156101d1573d6000803e3d6000fd5b5080600160003373ffffffffffffffffffffffffffffffffffffffff1673ffffffffffffffffffffffffffffffffffffffff168152602001908152602001600020600082825461022191906105a7565b925050819055503073ffffffffffffffffffffffffffffffffffffffff163373ffffffffffffffffffffffffffffffffffffffff167fddf252ad1be2c89b69c2b068fc378daa952ba7f163c4a11628f55a4df523b3ef83604051610285919061045d565b60405180910390a350565b60008054906101000a900473ffffffffffffffffffffffffffffffffffffffff1681565b8034146102f6576040517f08c379a00000000000000000000000000000000000000000000000000000000081526004016102ed90610627565b60405180910390fd5b80600160003373ffffffffffffffffffffffffffffffffffffffff1673ffffffffffffffffffffffffffffffffffffffff16815260200190815260200160002060008282546103459190610647565b925050819055503373ffffffffffffffffffffffffffffffffffffffff163073ffffffffffffffffffffffffffffffffffffffff167fddf252ad1be2c89b69c2b068fc378daa952ba7f163c4a11628f55a4df523b3ef836040516103a9919061045d565b60405180910390a350565b600080fd5b600073ffffffffffffffffffffffffffffffffffffffff82169050919050565b60006103e4826103b9565b9050919050565b6103f4816103d9565b81146103ff57600080fd5b50565b600081359050610411816103eb565b92915050565b60006020828403121561042d5761042c6103b4565b5b600061043b84828501610402565b91505092915050565b6000819050919050565b61045781610444565b82525050565b6000602082019050610472600083018461044e565b92915050565b61048181610444565b811461048c57600080fd5b50565b60008135905061049e81610478565b92915050565b6000602082840312156104ba576104b96103b4565b5b60006104c88482850161048f565b91505092915050565b6104da816103d9565b82525050565b60006020820190506104f560008301846104d1565b92915050565b600082825260208201905092915050565b7f53616c646f20696e737566696369656e74650000000000000000000000000000600082015250565b60006105426012836104fb565b915061054d8261050c565b602082019050919050565b6000602082019050818103600083015261057181610535565b9050919050565b7f4e487b7100000000000000000000000000000000000000000000000000000000600052601160045260246000fd5b60006105b282610444565b91506105bd83610444565b92508282039050818111156105d5576105d4610578565b5b92915050565b7f56616c6f7220696e636f727265746f0000000000000000000000000000000000600082015250565b6000610611600f836104fb565b915061061c826105db565b602082019050919050565b6000602082019050818103600083015261064081610604565b9050919050565b600061065282610444565b915061065d83610444565b925082820190508082111561067557610674610578565b5b9291505056fea2646970667358221220eea8b437db635f8a2f06a75140796cf46aca8d5192390937b2bdc617cdbc963364736f6c63430008130033",
  "immutableReferences": {},
  "source": "// SPDX-License-Identifier: MIT\r\n// Declarao do contrato\r\npragma solidity ^0.8.0;\r\n\r\n// Definio do contrato\r\ncontract CarbonCreditTrading {\r\n    // Variveis do contrato\r\n    address public owner;\r\n    mapping(address => uint) public balances;\r\n\r\n    // Evento de transferncia de tokens\r\n    event Transfer(address indexed _from, address indexed _to, uint256 _value);\r\n\r\n    // Construtor do contrato\r\n    constructor() {\r\n        owner = msg.sender;\r\n    }\r\n\r\n    // Funo de compra de crditos de carbono\r\n    function buyCarbonCredits(uint256 _amount) public payable {\r\n        // Verifica se o valor enviado  igual ao valor necessrio\r\n        require(msg.value == _amount, \"Valor incorreto\");\r\n\r\n        // Transfere crditos de carbono para o comprador\r\n        balances[msg.sender] += _amount;\r\n\r\n        // Emite evento de transferncia\r\n        emit Transfer(address(this), msg.sender, _amount);\r\n    }\r\n\r\n    // Funo de venda de crditos de carbono\r\n    function sellCarbonCredits(uint256 _amount) public {\r\n        // Verifica se o comprador tem crditos de carbono suficientes\r\n        require(balances[msg.sender] >= _amount, \"Saldo insuficiente\");\r\n\r\n        // Transfere stablecoin para o vendedor\r\n        payable(msg.sender).transfer(_amount);\r\n\r\n        // Subtrai crditos de carbono do vendedor\r\n        balances[msg.sender] -= _amount;\r\n\r\n        // Emite evento de transferncia\r\n        emit Transfer(msg.sender, address(this), _amount);\r\n    }\r\n}\r\n",
  "sourcePath": "C:\\Users\\user\\Desktop\\contract\\contracts\\CarbonCreditTrading.sol",
  "compiler": {
    "name": "solc",
    "version": "0.8.19+commit.7dd6d404.Emscripten.clang"
  },
  "schemaVersion": "3.4.13",
  "updatedAt": "2023-05-06T19:49:55.943Z",
  "networkType": "ethereum",
  "devdoc": {
    "kind": "dev",
    "methods": {},
    "version": 1
  },
  "userdoc": {
    "kind": "user",
    "methods": {},
    "version": 1
  }
}